:020000040800F2
:1000000000000220011200086D0700086F070008B9
:10001000710700087307000875070008000000005A
:10002000000000000000000000000000770700084A
:1000300079070008000000007B0700087D07000822
:100040005112000851120008511200085112000804
:1000500051120008511200085112000851120008F4
:1000600051120008511200085112000851120008E4
:1000700051120008511200085112000851120008D4
:1000800051120008511200085112000851120008C4
:1000900051120008511200085112000851120008B4
:1000A00051120008511200085112000851120008A4
:1000B0005112000851120008511200085112000894
:1000C0005112000851120008511200085112000884
:1000D0005112000851120008511200085112000874
:1000E0005112000851120008511200085112000864
:1000F0005112000851120008511200085112000854
:100100005112000851120008511200085112000843
:100110005112000851120008511200085112000833
:100120005112000851120008511200085112000823
:1001300051120008000000000000000051120008E9
:100140005112000851120008511200085112000803
:1001500051120008511200085112000851120008F3
:1001600051120008511200085112000851120008E3
:10017000511200085112000851120008000000003E
:100180000000000051120008000000000000000004
:100190005112000800000000000000005112000889
:1001A00000000000000000000000000051120008E4
:1001B0005112000851120008511200085112000893
:0401C00051120008D0
:1001C400044B05481B1A062B02D9044B03B11847EC
:1001D400704700BF0F0000200C000020000000004A
:1001E40005490648091A891001EBD171491002D05A
:1001F400034B03B1184770470C0000200C0000208B
:100204000000000010B5064C237843B9FFF7D8FF6F
:10021400044B13B10448AFF300800123237010BDD5
:100224000C000020000000005412000808B5084B20
:100234001BB108490848AFF300800848036813B9A4
:10024400BDE80840CCE7064B002BF9D09847F7E708
:100254000000000010000020541200080C000020D0
:100264000000000070B50F4E0F4D761BB61018BF7E
:10027400002405D0013455F8043B9847A642F9D12F
:100284000A4E0B4D761B00F0E3FFB61018BF002496
:1002940006D0013455F8043B9847A642F9D170BD05
:1002A40070BD00BF84120008841200088812000880
:1002B4008412000870B4860746D0541E002A41D028
:1002C400CAB2034602E014F1FF343BD303F8012B16
:1002D4009D07F8D1032C2ED9CDB245EA05250F2C64
:1002E40045EA054519D903F110022646103E0F2EA2
:1002F40042F8105C42F80C5C42F8085C42F8045C7A
:1003040002F11002F2D8A4F1100222F00F0204F05C
:100314000F041032032C13440DD91E462246043A0E
:10032400032A46F8045BFAD8221F22F0030204329F
:10033400134404F003042CB1C9B21C4403F8011B98
:100344009C42FBD170BC704714460346C2E700BF11
:1003540053B94AB9002908BF00281CBF4FF0FF3128
:100364004FF0FF3000F07AB9ADF1080C6DE904CE1E
:1003740000F006F8DDF804E0DDE9022304B070477C
:100384002DE9F0478C460D460446089E002B51D1BA
:100394008A4217466DD9B2FA82FEBEF1000F0BD025
:1003A400CEF1200C01FA0EF520FA0CFC02FA0EF73D
:1003B4004CEA050C00FA0EF44FEA174A250CBCFB74
:1003C400FAF81FFA87F90AFB18CC45EA0C4508FB32
:1003D40009F3AB420AD9ED1908F1FF3280F0238109
:1003E400AB4240F22081A8F102083D44ED1AA4B2C8
:1003F400B5FBFAF00AFB105544EA054400FB09F981
:10040400A14509D9E41900F1FF3380F00A81A1451F
:1004140040F2078102383C44A4EB090440EA084056
:100424000021002E61D024FA0EF40023346073609E
:10043400BDE8F0878B4207D9002E54D0002186E80E
:1004440021000846BDE8F087B3FA83F1002940F0A3
:100454008E80AB4202D3824200F2FA80841A65EBAA
:1004640003050120AC46002E3FD086E81010BDE8FD
:10047400F08712B90127B7FBF2F7B7FA87FEBEF18E
:10048400000F34D1EB1B3A0C1FFA87FC0121B3FB9C
:10049400F2F8250C02FB183345EA03450CFB08F37C
:1004A400AB4207D9ED1908F1FF3002D2AB4200F29A
:1004B400D1808046ED1AA3B2B5FBF2F002FB1055D1
:1004C40043EA05440CFB00FCA44507D9E41900F1F8
:1004D400FF3302D2A44500F2B8801846A4EB0C0402
:1004E40040EA08409DE731463046BDE8F087CEF14A
:1004F400200405FA0EF307FA0EF720FA04F83A0C72
:1005040025FA04F448EA0308B4FBF2F14FEA18456B
:1005140002FB11441FFA87FC45EA044501FB0CF376
:10052400AB4200FA0EF409D9ED1901F1FF3080F065
:100534008A80AB4240F2878002393D44EB1A1FFAAD
:1005440088F5B3FBF2F002FB103345EA034500FBE8
:100554000CF3AB4207D9ED1900F1FF386FD2AB426F
:100564006DD902383D44EB1A40EA01418FE7C1F1ED
:10057400200722FA07F88B4005FA01F448EA03033E
:1005840020FA07FE4FEA134CFD404EEA040EB5FB79
:10059400FCF94FEA1E440CFB19551FFA83F844EA90
:1005A400054509FB08F4AC4202FA01F200FA01FA2B
:1005B40008D9ED1809F1FF3043D2AC4241D9A9F171
:1005C40002091D442D1B1FFA8EFEB5FBFCF00CFB2B
:1005D40010554EEA054400FB08F8A04507D9E41875
:1005E40000F1FF3529D2A04527D902381C4440EA3E
:1005F4000940A4EB0804A0FB02894C45C6464D46BD
:1006040015D312D056B1BAEB0E0364EB050404FA09
:1006140007F7CB401F43CC40376074600021BDE82E
:10062400F0871846F8E69046E0E6C245EAD2B8EB11
:10063400020E69EB03050138E4E72846D7E7404694
:1006440091E78146BEE7014678E702383C4445E736
:10065400084608E7A8F102083D442BE7704700BFAD
:1006640030B587B000240194029403940494059453
:1006740000940E4B1A6B42F001021A631B6B03F0D9
:1006840001030093009B0A4D22463F21284600F0B7
:10069400DBFC3F230193012302930394049401A9F7
:1006A400284600F0E7FB07B030BD00BF0038024029
:1006B4000000024072B6FEE700B595B03422002176
:1006C40007A8FFF7F7FD0023029303930493059310
:1006D40006930093194A116C41F080511164126C15
:1006E40002F080520092009A019315490A6822F49C
:1006F400404242F480420A600A6802F44042019295
:10070400019A0222079201220A9210220B920D935F
:1007140007A800F091F968B90F230293002103910F
:1007240004910591069102A800F046F820B915B08D
:100734005DF804FBFFF7BEFFFFF7BCFF0038024083
:100744000070004008B500F00FFDFFF7B5FFFFF79C
:1007540087FF2021034800F07DFC4FF47A7000F0FD
:100764002FFDF6E700000240FEE7FEE7FEE7FEE7A6
:10077400FEE770477047704708B500F00FFD08BDED
:1007840082B0002100910B4B5A6C42F480425A64AF
:100794005A6C02F480420092009A01911A6C42F061
:1007A40080521A641B6C03F080530193019B02B0C6
:1007B400704700BF00380240002800F09E8070B5EA
:1007C4000446504B1B6803F00F038B4209D2CBB293
:1007D4004C4A1370136803F00F03994201D00120AF
:1007E40070BD236813F0020F17D013F0040F04D068
:1007F400454A936843F4E0539360236813F0080F69
:1008040004D0414A936843F4604393603E4A93683A
:1008140023F0F003A068034393600D46236813F0AC
:10082400010F32D06368012B21D09A1E012A25D9E9
:10083400354A126812F0020F61D033498A6822F0F7
:10084400030213438B6000F0B5FC06462E4B9B68F5
:1008540003F00C036268B3EB820F16D000F0AAFC1D
:10086400801B41F288339842F0D9032070BD264A98
:10087400126812F4003FE0D1012070BD224A1268D0
:1008840012F0007FD9D1012070BD1E4B1B6803F00C
:100894000F039D4209D2EAB21A4B1A701B6803F087
:1008A4000F039D4201D0012070BD236813F0040F93
:1008B40006D0154A936823F4E053E1680B43936030
:1008C400236813F0080F07D00F4A936823F460439A
:1008D400216943EAC103936000F01EF80A4B9B6848
:1008E400C3F30313094AD35CD840094B1860094B7E
:1008F400186800F013FC002070BD0120704701202F
:1009040070BD00BF003C0240003802406C12000879
:100914000800002004000020F8B5444B9B6803F055
:100924000C03082B05D00C2B41D0042B7BD0404862
:10093400F8BD3E4B5A6802F03F025B6813F4800F27
:1009440012D03A4B5968C1F3881100233948A1FBEE
:100954000001FFF7FDFC354B5B68C3F30143013332
:100964005B00B0FBF3F0F8BD304B5B68C3F3881356
:100974001E4600275C010025E41A65EB0705A90162
:1009840041EA9461A001001B61EB0501CB0043EA3D
:100994005073C400A01943EB07018B0243EA905340
:1009A4008402204619460023FFF7D2FCD3E71F4BED
:1009B4005A6802F03F025B6813F4800F10D01B4B9F
:1009C4005968C1F3881100231A48A1FB0001FFF7FD
:1009D400BFFC164B5B68C3F30273B0FBF3F0F8BDC6
:1009E400124B5B68C3F388131E4600275C01002585
:1009F400E41A65EB0705A90141EA9461A001001B13
:100A040061EB0501CB0043EA5073C400A01943EB2A
:100A140007018B0243EA90538402204619460023BF
:100A2400FFF796FCD5E70348F8BD00BF0038024045
:100A34000024F40040787D01002800F00B8270B59A
:100A440082B00446036813F0010F41D0A54B9B68A4
:100A540003F00C03042B32D0A24B9B6803F00C036D
:100A6400082B27D09F4B9B6803F00C030C2B59D009
:100A74006368B3F5803F5BD0B3F5A02F5ED0994B8C
:100A84001A6822F480321A601A6822F480221A60EA
:100A94006368002B5CD000F08DFB0546914B1B680E
:100AA40013F4003F14D100F085FB401B6428F5D9F2
:100AB4000320D4E18B4B5B6813F4800FD2D0894BB5
:100AC4001B6813F4003F03D06368002B00F0C4815B
:100AD400236813F0020F67D0824B9B6813F00C0F4E
:100AE4004AD0804B9B6803F00C03082B3FD07D4B0E
:100AF4009B6803F00C030C2B48D0E368002B74D0E4
:100B04000122794B1A6000F055FB0546754B1B68B2
:100B140013F0020F60D100F04DFB401B0228F5D901
:100B240003209CE16F4B5B6813F4800FA0D0C6E7F1
:100B34006C4A136843F480331360A9E7694B1A685D
:100B440042F480221A601A6842F480321A609FE7E5
:100B540000F030FB0546634B1B6813F4003FB7D02D
:100B640000F028FB401B6428F5D9032077E15D4B96
:100B74005B6813F4800FBAD15A4B1B6813F0020F51
:100B84000AD0E368012B07D0012068E1554B5B686C
:100B940013F4800FB1D1EFE7524A136823F0F8033E
:100BA400216943EAC1031360236813F0080F40D09E
:100BB400636963B301224D4B1A6000F0FBFA0546EA
:100BC400484B5B6F13F0020F33D100F0F3FA401B74
:100BD4000228F5D9032042E1424A136823F0F803BE
:100BE400216943EAC1031360DEE700223E4B1A6029
:100BF40000F0E0FA05463B4B1B6813F0020FD3D01C
:100C040000F0D8FA401B0228F5D9032027E100227E
:100C1400364B1A6000F0CEFA0546324B5B6F13F088
:100C2400020F06D000F0C6FA401B0228F5D90320B3
:100C340015E1236813F0040F78D02A4B1B6C13F0D2
:100C4400805F33D100230193264B1A6C42F080520B
:100C54001A641B6C03F080530193019B0125244B00
:100C64001B6813F4807F23D0A368012B34D0052B99
:100C740040D01C4B1A6F22F001021A671A6F22F03F
:100C840004021A67A368002B3ED000F093FA0646CC
:100C9400144B1B6F13F0020F47D100F08BFA801B2B
:100CA40041F288339842F3D90320D8E00025D6E7EF
:100CB4000F4A136843F48073136000F07BFA06460E
:100CC4000B4B1B6813F4807FCED100F073FA801BAA
:100CD4000228F5D90320C2E0024A136F43F001034E
:100CE4001367CFE70038024000004742800E4742B6
:100CF400007000405D4B1A6F42F004021A671A6FCD
:100D040042F001021A67BDE700F054FA0646574B59
:100D14001B6F13F0020F08D000F04CFA801B41F255
:100D240088339842F3D9032099E0EDB9A369002BE5
:100D340000F094804D4A926802F00C02082A54D0C4
:100D4400022B17D000224A4B1A6000F033FA0446F3
:100D5400464B1B6813F0007F45D000F02BFA001BB4
:100D64000228F5D903207AE0404A136C23F080531B
:100D74001364DBE700223E4B1A6000F01BFA0546C1
:100D84003A4B1B6813F0007F06D000F013FA401BA7
:100D94000228F5D9032062E0E369226A1343626AF8
:100DA40043EA8213A26A5208013A43EA0243E26A1E
:100DB40043EA0263226B43EA02732C4A5360012222
:100DC4002B4B1A6000F0F6F90446284B1B6813F00D
:100DD400007F06D100F0EEF9001B0228F5D90320AC
:100DE4003DE000203BE0002039E0012B39D01F4BCF
:100DF4005B6803F48001E269914201D001202EE096
:100E040003F03F02216A8A4201D0012027E0616A8F
:100E140047F6C0721A40B2EB811F01D001201EE0D8
:100E240003F44031A26A5208013AB1EB024F01D0F7
:100E3400012014E003F07062E16AB2EB016F01D0AB
:100E440001200CE003F0E043226BB3EB027F0AD0F5
:100E5400012004E001207047012000E0002002B0DE
:100E640070BD0120FBE70020F9E700BF0038024015
:100E74006000474200230F2B00F2DA80F0B583B004
:100E840062E085684FEA430E032707FA0EF725EA66
:100E94000705CE6806FA0EF635438560456825EAEF
:100EA40002024D68C5F300159D402A43426057E095
:100EB400DD08083550F8252003F00706B6000F2793
:100EC400B74022EA07020F6907FA06F6324340F8F0
:100ED400252059E0062600E0002606FA0EF63543E2
:100EE4000232544E46F82250534A1568E24305EA4A
:100EF40002064F6817F4803F01D044EA05064E4DC0
:100F04002E606D6802EA05064F6817F4003F01D0B1
:100F140044EA0506484D6E60AD6802EA05064F686E
:100F240017F4801F01D044EA0506434DAE60ED6816
:100F34002A404E6816F4001F01D044EA05023E4CD4
:100F4400E26001330F2B71D801229A400C681440DF
:100F5400A242F6D14D6805F00305013D012D90D95B
:100F64004A6802F00302032A09D0C2685F0003261C
:100F7400BE4022EA06028D68BD402A43C2604A6828
:100F840002F00302022A93D002685F000326BE40E7
:100F940022EA06024D6805F00305BD402A430260BB
:100FA4004A6812F0805FCCD000220192234A556C2B
:100FB40045F480455564526C02F480420192019AD2
:100FC4009A08961C1B4D55F8265003F003064FEA69
:100FD400860E0F2606FA0EF625EA0605184FB842C5
:100FE4003FF47AAF174EB04216D006F58066B04291
:100FF40014D006F58066B04212D006F58066B04281
:1010040010D006F58066B0420ED006F58066B04278
:101014003FF460AF072660E701265EE702265CE73F
:1010240003265AE7042658E7052656E703B0F0BD21
:10103400704700BF00380140003C014000380240C6
:10104400000002400004024012B9090481617047A3
:1010540081617047436903EA010221EA030141EA1D
:101064000241816170470000074AD36823F4E063BA
:101074001B041B0C000200F4E060184340F0BF6046
:1010840040F40030D060704700ED00E030B4164BFF
:10109400DB68C3F30223C3F10704042C28BF042430
:1010A4001D1D062D17D9033B012505FA04F4013C47
:1010B4002140994005FA03F3013B134019430028EA
:1010C4000BDB0901C9B200F1604000F5614080F812
:1010D400001330BC70470023E6E700F00F0009015D
:1010E400C9B2024B1954F4E700ED00E014ED00E03E
:1010F4000138B0F1807F0AD2064B5860F021064ACD
:1011040082F823100020986007221A60704701209B
:10111400704700BF10E000E000ED00E010B50446A9
:101124000E4B18784FF47A73B3FBF0F30C4A106843
:10113400B0FBF3F0FFF7DCFF68B90F2C01D90120F5
:1011440010BD002221464FF0FF30FFF79FFF054BF3
:101154001C60002010BD012010BD00BF0000002055
:10116400080000200400002008B50B4B1A6842F464
:1011740000721A601A6842F480621A601A6842F4B3
:1011840080721A600320FFF76FFF0020FFF7C6FF8D
:10119400FFF7F6FA002008BD003C0240034A11683C
:1011A400034B1B780B441360704700BF28000020DA
:1011B40000000020014B1868704700BF2800002081
:1011C40038B50446FFF7F6FF0546B4F1FF3F02D0F9
:1011D400044B1B781C44FFF7EDFF401B8442FAD8F4
:1011E40038BD00BF00000020034AD2F8883043F421
:1011F4007003C2F88830704700ED00E0DFF834D0A7
:101204000D480E490E4A002302E0D458C45004335A
:10121400C4188C42F9D30B4A0B4C002301E0136031
:101224000432A242FBD3FFF7DFFFFFF71BF8FFF7FF
:1012340089FA704700000220000000200C00002002
:101244008C1200080C0000202C000020FEE7000097
:10125400F8B500BFF8BC08BC9E467047F8B500BF9F
:08126400F8BC08BC9E4670476F
:10126C00000000000000000001020304060708094A
:08127C0008F1FF7F01000000F2
:04128400310200082B
:04128800090200084F
:0C128C0001000000100000000024F4002D
:0400000508001201DC
:00000001FF
